:020000022000DC
:10700000007D0020A5B90200D9B9040091B90200A1
:1070100091B9020091B9020091B90200000000008C
:10702000000000000000000000000000C1BA0200E3
:1070300091B902000000000025BA020091B90200D7
:1070400055BD020045DC030055BD020055BD0200E0
:1070500055BD020055BD020055BD020055BD0200E0
:1070600055BD020055BD020055BD020055BD0200D0
:1070700055BD020055BD020055BD020055BD0200C0
:1070800055BD020055BD020055BD020055BD0200B0
:1070900055BD020055BD020055BD020055BD0200A0
:1070A00055BD020055BD020055BD020055BD020090
:1070B00055BD020055BD020055BD020055BD020080
:1070C00055BD020055BD020055BD020055BD020070
:1070D00055BD020055BD020055BD020055BD020060
:1070E00055BD020055BD020055BD020055BD020050
:1070F00055BD020055BD020055BD020055BD020040
:1071000053B94AB9002908BF00281CBF4FF0FF310E
:107110004FF0FF3000F00CB8ADF1080C6DE904CE73
:1071200000F022F8DDF804E0DDE9022304B0704746
:10713000704700BF10F8012B11F8013B012A28BF4E
:107140009A42F7D0D01A7047034611F8012B03F882
:10715000012B002AF9D17047034613F8012B002AAE
:10716000FBD1181A013870472DE9F04786468C4646
:107170000846089E154674461946002B40F0C2800A
:107180008542B2FA82F245D94AB1C2F1200300FA2F
:1071900002FC2EFA03F3954043EA0C0C94404FEAAC
:1071A000154EA8B2BCFBFEF8230C0EFB18CC08FB56
:1071B00000F943EA0C43994528D9EB1808F1FF3749
:1071C00004D2994502D9A8F102072B44A3EB090385
:1071D000A4B2B3FBFEFC0EFB1C330CFB00F044EA34
:1071E0000344A04214D92C190CF1FF3304D2A0425D
:1071F00002D9ACF102032C44241A43EA07401EB121
:10720000D440002334607360BDE8F0874746DDE773
:107210006346F1E792BB431B01214FEA154EAFB223
:10722000B3FBFEFC200C0EFB1C330CFB07F840EA02
:107230000343984562D9EB180CF1FF3004D298450E
:1072400002D9ACF102002B44A3EB0803A4B2B3FBB8
:10725000FEFC0EFB1C330CFB07F744EA0344A74279
:107260004ED92C190CF1FF3304D2A74202D9ACF14C
:1072700002032C44E41B43EA0040C0E7C2F12003B0
:1072800020FA03F1954090402EFA03F303434FEAAE
:10729000154EAFB2B1FBFEFC0EFB1C10190C0CFB23
:1072A00007F841EA0041884504FA02F422D9691836
:1072B0000CF1FF3004D2884502D9ACF10200294418
:1072C000A1EB08019BB2B1FBFEFC0EFB1C110CFBF9
:1072D00007F743EA01439F420ED9EB180CF1FF3147
:1072E00004D29F4202D9ACF102012B44DB1B41EADC
:1072F000004192E76046E3E76146F7E76046A3E7AF
:107300006346B7E7834206D916B9002108467BE7F2
:10731000C6E900E0F9E7B3FA83F78FB9834201D3F6
:10732000724508D8BEEB020460EB030301209C46C3
:107330001EB9002168E73846FAE7C6E9004CF8E7CD
:10734000C7F1200CBB4022FA0CF41C432EFA0CF1BE
:1073500020FA0CF3B84001434FEA14490EFA07F53E
:10736000B3FBF9F81FFA84FE09FB18300B0C08FB7D
:107370000EFA43EA00439A4502FA07F240D9E318AD
:1073800008F1FF3004D29A4502D9A8F10200234443
:10739000A3EB0A0389B2B3FBF9F809FB183308FB26
:1073A0000EFE41EA03418E452CD9611808F1FF33E6
:1073B00004D28E4502D9A8F10203214443EA0040D9
:1073C000A0FB0298A1EB0E014145CE46434602D3F5
:1073D00006D14D4504D2B9EB020E68EB0403013827
:1073E000002EA6D0B5EB0E0261EB030101FA0CFCF6
:1073F00022FA07F34CEA0303F940C6E9003198E7A3
:107400004046C5E74346D9E7F7B5002101AA40F653
:10741000034005F0B1FC0446002869D10198C36817
:107420001B788BB9BFF35B8FB94B1A68BFF35B8FC7
:1074300002F00902BFF35B8F53E8001F43E800240A
:10744000002CF9D1BFF35B8F04F01AFF01AA0021D1
:1074500041F2030005F090FC0446002848D1019A4F
:10746000AC4DD168D1F80100D1F8051005F17803D1
:1074700003C3104604F004FF214601AA41F20100B3
:1074800005F07AFC044698BB0198C3685A7885F8E1
:1074900070205A88A5F872201A7985F87120B3F8FF
:1074A0000720A5F87420B3F80530A5F8763004F06D
:1074B000E7FE214601AA41F2020005F05DFC044608
:1074C000B0B9019FFA6805F18006531C4132186873
:1074D0005968344603C4083393422646F7D13846E8
:1074E00004F0CEFE95F87C305B0604D46FF01204F5
:1074F000204603B0F0BD01AA002142F2030005F0CE
:107500003BFC04460028F3D1019B834EDA68D2F895
:107510000100D2F8051003C6184604F0B1FE21465A
:1075200001AA42F2020005F027FC04460028DFD140
:10753000019CE368B3F8012091B249B1D97839B11F
:10754000A5F80421DA78114606F1280029F0B6FFE3
:10755000204604F095FE95F87C601F2316F0200667
:10756000A5F8203118D1022140F66D4005F086FAC9
:107570000446002800F0C48002210C3024F0DCFA1C
:107580000123037046702146324640F66D4005F0F7
:10759000F3FB04460028ABD195F89C301F0712D5A9
:1075A00001AA002142F21C0005F0E6FB0446002877
:1075B0009ED10198C368D3F80120D3F80530C5E9FE
:1075C000382304F05DFE95F8D8309E0624D50DF1E1
:1075D0000201684624F0EAFE0446002888D104210E
:1075E00042F2240005F04AFA0646002800F088809E
:1075F00004210C3024F0A0FABDF800300380BDF85F
:10760000023043802246314642F2240005F0B4FBAA
:10761000044600287FF46CAF95F8D8305C0610D58E
:1076200001AA002142F22A0005F0A6FB0446002828
:107630007FF45EAF0198C3685B7885F8223104F06F
:107640001FFE082142F2010005F018FA0446002846
:1076500056D008210C3024F06FFA95F8D81011F0AC
:10766000400F024640F2022308BF032388074CBFA5
:1076700043F02C0043F00C0095F8D9308F0648BF3A
:1076800040F0400013F0090F18BF40F40060CE072F
:1076900048BF40F01000002124F0B9FC2146002230
:1076A00042F2010005F068FB044600287FF420AF99
:1076B00095F87C30B5F80411980624D4C9B901AA0C
:1076C00041F2050005F058FB044600287FF410AF96
:1076D000B5F80431019C4BB9E368B3F80120A5F873
:1076E00004219A880D48114629F0E8FE204604F04E
:1076F000C7FD082140F6014005F0C0F9044678B9FD
:107700006FF06804F4E60029F3D16FF00404EFE6AB
:10771000D400002000000020D80000200801002034
:1077200008210C3024F008FA95F8D830D907024621
:1077300053BF4FF000512CA1D1E90001284824F09B
:1077400066FC2146002240F6014005F015FB044688
:1077500000287FF4CDAE014601AA4FF6014005F0A6
:107760000BFB044620BB019804F08AFD214601AAC8
:107770004FF6024005F000FB0446C8B90198C36803
:10778000B3F80130A5F8C13004F07AFD95F8C130A6
:107790005B070DD501AA21464FF6034005F0ECFA30
:1077A00030B90198C3685B7885F8C03004F068FD93
:1077B00024F0D3FF044600287FF49AAE07F048FB7C
:1077C000044600287FF494AEEB79002B3FF490AE92
:1077D0000821044824F055FB05F01EFA88E600BF96
:1077E00010880002D4000020908800020080002051
:1077F0002DE9F843D0E90738856903EB08042F34F5
:10780000A5420F46164619D8DFF87080A3FB080181
:1078100017A3D3E90023FFF773FC0346601BA0FB0B
:10782000080123F07F4412A3D3E90023FFF768FC8B
:1078300020F07F403C603060BDE8F883DFF83C908A
:107840000BA3D3E90023A5FB0901FFF759FC20F0A6
:107850007F4409480A2106A3D3E90023E8FB090174
:10786000FFF74EFC20F07F403C603060BDE8F883BD
:107870008D49FD1A0700000000166BF100CA9A3B03
:107880009FED097B0E4B0F4A0F4983ED007B9FED67
:10789000087B82ED007B9FED087B0C4B002281ED85
:1078A000007B1A600DF018BDFFFFFFFFFF1F0000F7
:1078B00000000000000000001F00000000000000A9
:1078C000900100200015002088010020C82B002016
:1078D000002800F046812DE9F04FC94C94F86A2049
:1078E00012F001058DB040F0788194F82500FF2357
:1078F00000F0030084F8263015F07EFD94F86A004D
:10790000420727D494F8292094F8353004EB8202FA
:1079100004EB8303D66AD3F8388086B1B848314681
:107920000FF0B4FA33785B0605D506210AF06AFC3D
:10793000002800F05481B24841460FF0A7FA33788E
:1079400013F00E0F40F09E80236A93B10C200DB00F
:10795000BDE8F08F2A4604F16B01C0F3C00015F0BA
:10796000C3FEFF2884F82600CCD0284615F05EFD23
:10797000C8E70CF089FF8146002800F054810CF024
:107980008FFF8246002800F04B810FF07DFD0546F9
:10799000002800F04A81D0F894004FF6FF732B8640
:1079A00005F11C0B002800F0208105F1880205F18B
:1079B00084010AF033FCB5F8823023F4EF6323F03E
:1079C000070343F48C7343F00103A5F8823095F864
:1079D000433003F03F0363F07F0385F8433095F8AD
:1079E0009A3023F0070385F89A3095F8483023F051
:1079F0000F03002785F848304FF4C023C5F89831AD
:107A00002846C5E91577C5F89470A5F8987085F8EB
:107A10004570EF86C5F83A70EF65A5F89E71A5F838
:107A2000947111F0A1FE85F86071C5F864910FF0B2
:107A3000DFFF95F8A43160F3020385F8A4310FF05D
:107A4000DDFF95F8A43160F3C50385F8A43195F8FE
:107A5000903167F3410385F890310121284610F0F9
:107A6000E5FB05F1E00011F057FCC4E9189AC4F8F1
:107A700020B0C5E905772F70ED6116F017FF0028DB
:107A800040F0AF8094F824300121C3F342030DF19C
:107A90002B008DF82B300AF05FFD0246002862D0E3
:107AA00098F8011030460EF0ABFF31235549A36022
:107AB000554BB4F86870A0FB01010025C01841F1D6
:107AC00007014DA3D3E90023C4E90555257065607E
:107AD000E560FFF715FB20610BF0FEFF00F10908E0
:107AE0003FB9357805F00F05A5F10105B5FA85F523
:107AF0006D0994F82400236965F3000010F0010576
:107B000084F8240036D0414A0992002010600225F2
:107B10003F4A404F04930BAE019305920321CDE9F8
:107B20000200069443460090089607972A460B9554
:107B30000BF0D4FE31460CF063FFA0B93649059135
:107B40004AF2D8330093CDE90300CDE9010007974D
:107B5000089606944346012203210B950BF0A2FEE2
:107B60002EE00EF09DBE236A002B3FF4EFAE0EF028
:107B700053FEEBE6254A2948049303F24713069483
:107B8000029591211360A7FB000301FB0731214BF4
:107B900007931F4B05934FF6FF7309920227039338
:107BA0000BAE15A3D3E900230B970896FFF7A8FAAD
:107BB0004346CDE900503A46284603210BF08EFE9D
:107BC00031460CF01DFF0028CDD194F86A30012019
:107BD000034384F86A3015F0F1FB0020B7E6122069
:107BE000B5E60EF019FE0320B1E605F18C00C5F8EC
:107BF0009400DAE6AFF300808D49FD1A070000001B
:107C0000002C002000CA9A3B8C49FD1AF42B00205E
:107C10007D6A0300393C030061650300002AE784A4
:107C200048460CF037FE072091E650460CF03EFE29
:107C300048460CF02FFEF6E770B590F824308AB075
:107C4000C3F342030D46044601210DF123001646FD
:107C50008DF823300AF080FC7178024628460EF039
:107C6000CFFE1F491F4AA0FB0131981841F10701BF
:107C700019A3D3E90023FFF743FA23699842054685
:107C800021D21B1A00220192174A0293174BA21A03
:107C9000A3FB02320221920900230A4409AE099192
:107CA00013490591CDE903330321D2B2069600931F
:107CB00018460BF073FE31460CF0A2FE38B9256170
:107CC00000200AB070BDFBD9C21A0023DBE70C20EC
:107CD0000AB070BDAFF300808D49FD1A07000000A7
:107CE00000CA9A3B8C49FD1A002C002009CB3D8D1F
:107CF000393C0300000000002DE9F04F06468DB02E
:107D00008A46012002219946154618F06DFD002291
:107D10000B90022101200AF0D1FA3B494FF4D872AE
:107D200030460AF05BFAC71C384B0093FFB201964D
:107D30004B463A46012100200BF08AFE10F0FD0F61
:107D40000ED0334A3349344840F68F0322F04FFFB8
:107D5000002383F31188BFF36F8F0323184602DFDC
:107D60002E4CA5FB044526A3D3E900232046294633
:107D7000FFF7C6F90896069633690493284B20F05E
:107D80007F48A8FB0331E01A264B07934FF0070208
:107D9000254B059302FB08114FF6FE7365EB0101BD
:107DA00003934FF47A720023FFF7AAF94FF0000B08
:107DB000CDE90180CDF800A04B463A460121584656
:107DC0000BF070FD10F0FD0F0DD0114A1149124853
:107DD00040F6A40322F00BFF8BF31188BFF36F8FE3
:107DE0000323184602DF0B9B13B90DB0BDE8F08FDB
:107DF0000122022110460DB0BDE8F04F0AF05EBA34
:107E00008D49FD1A070000000815002029740300A1
:107E1000CC38050090390500AC33050000CA9A3B08
:107E20008D49FD1AC9730300EDC80300000000006E
:107E30002DE9F0418468228E4FF6FF739A428CB090
:107E400045D00546204611F02DFF2B7D012B00F07B
:107E50002281022B00F01581002B00F0F48094F8B1
:107E60006061002E40F010812B8A678F94F94320C7
:107E7000CDE90A6673B3002AC0F25A810023A4F840
:107E80009A31AA7C238FFD1802F003030135012BE0
:107E9000ADB23BD0B4F89E31002B00F005819D427D
:107EA00080F059815B1B9BB20022062BA4F89E3107
:107EB000628740F2F68094F943309342C0F25081D9
:107EC000002326E09DF8271020460FF075FE0CB029
:107ED000BDE8F081002AB8BF84F88561238FAA7CB1
:107EE000FD1802F003030135012BADB20ED0B4F83A
:107EF0009A31002BCED0AB4240F23C815B1BA4F800
:107F00009A31B4F89E31002BC9D102E00023A4F8C5
:107F10009E3194F8482063F3820284F84820294671
:107F20000DF12702204611F05BFC7430CAD0B4F882
:107F300098312BB1AB4240F2EC805B1BA4F8983136
:107F4000B4F894312BB1AB4240F2DA805B1BA4F859
:107F50009431658F16B9AF4200F0C9800135ADB2DA
:107F600094F8DD3013F0010731D1DDE90A130A4638
:107F7000002B40F0CC80002900F0BB801F46184643
:107F8000228EE4690694CDE9035603329A4D02909D
:107F9000CDE90017D2B20121002005950BF0FEFCBF
:107FA00010F0FD0F93D00CF055FD84428FD0934A12
:107FB000934994484FF4AE6322F019FE002383F3F3
:107FC0001188BFF36F8F0323184602DF7FE794F910
:107FD00043206FF30003002A84F8DD307FDB94F840
:107FE0008200C0F3C00100F0070016F077FAB4F881
:107FF0007A20B4F878301344628D03F23F131344AF
:108000000344814A81480721E3FB0021104678A3FD
:10801000D3E90023FFF774F8DDE90A1320F07F426B
:1080200020692261904235BF171A801A002000276C
:108030000A46002BA4D157EA010CA1D1002858D040
:1080400019461F469CE794F89A3003F01803182B42
:108050007FF405AFA18EB4F896218B1D9A42C4BF60
:10806000931F5B1AB4F89211CCBF9BB2134699428E
:1080700000F09C80A4F89231A4F89431A4F89821DF
:10808000EDE63D2684F86061314620460CB0BDE83F
:10809000F0410FF091BD0023A4F89831A4F8943179
:1080A000DDE60126334634E7628E052A97BF0132AA
:1080B00040F2E2434FF4FA7392B203FB02F2B4F8D7
:1080C0009C3142F2107101FB0323013BB3FBF2F33D
:1080D0009BB2A4F89E31002B7FF4E1AE19E794F82F
:1080E0008300012100F0070016F0FAF97FE735461A
:1080F00036E7002D43D00027114638463B463FE780
:108100000023A4F89431204611F00CFC21E73846F6
:1081100036E70CF00BFC0146A0B30023A4F898311D
:10812000238EC3801B23037100680CF0D1FB07E78B
:1081300094F885316BB3013B84F8853104F1E00894
:10814000404611F02BF9B8B3404611F027F9B8B307
:108150000023638792E6082120460FF02DFDB6E646
:10816000A7B9D4F888315A0813F0010336D1C4F8FE
:108170008821A5E63E2120460FF01EFDA7E6002E31
:10818000B9D1A4E60123A4F89831D9E61346012613
:10819000BFE60AAA0BA92846FFF72AFBDDE90A2356
:1081A0001343CBD0237884F88531C7E7B4F898110E
:1081B00000297FF454AE5FE7FF200FF0BFFCC3E758
:1081C0000246D4E921010AF041F80028C0D194F810
:1081D00048301B0744BFA38E63874FE642F000423E
:1081E0001E46C4F888213B4693E600BFAFF30080EB
:1081F0008D49FD1A0700000085730300CC38050087
:108200000C3A0500AC3305008C49FD1A00CA9A3BB4
:108210002DE9F04F87B0CDE90423BDF84420037861
:108220000292BDF84820BDF840A0BDF84C90878F61
:10823000019104460392002B00F0D480013FBFB2AD
:10824000A368D4F81CB1A7EB090292B2002B0092EC
:108250000ADAE168626823F0004391422CBF8B4444
:108260009344A360ABEB030B94F88200C0F3C0010E
:1082700000F0070016F032F9658E052D40F2AA8055
:10828000009B15FB03F5ADB240F2E248BAF1050FD1
:1082900040F29480B4F87A20B4F87830134403F2B2
:1082A000D51303447A4A7B480721E3FB00214FF0B2
:1082B0009613A36296231046A38573A3D3E90023E4
:1082C000FEF71EFF564620F07F4040F2E24308FBD7
:1082D00005F103FB06F6B1FBF6F81FFA88F52061FD
:1082E00006FB05F08142A8465AD2401A694966A3A6
:1082F000D3E90023A0FB0101FEF702FF20F07F403D
:108300008344E38EB4F824211344994494F8433011
:10831000A9EB0709C844DB09A4F8368069D15E4A95
:108320005E495F4840F6671322F061FC002585F343
:108330001188BFF36F8F0323184602DF3746029B75
:10834000A386039BA4F89C3131462046A4F832A0B2
:1083500011F082FA534BA18E3344881DB3FBF6F320
:108360009AB29042A4F8962104D2C1F57F41FA3125
:108370000A4492B2019BA4F8922113B10023A4F8FD
:108380009E315B463A4629462046FFF7B5FC94F8F5
:10839000903143F0010384F8903107B0BDE8F08FCD
:1083A000091A3C4838A3D3E90023A1FB0001FEF7DA
:1083B000A7FE20F07F40ABEB000BA2E74FF0961337
:1083C0000AF10106A3629623A385B6B20A204FF4F0
:1083D000FA737CE7009B013515FB03F5ADB24FF452
:1083E000FA7853E7C38E1F44B0F824311F44BFB25C
:1083F00026E7E26C0099636D02FB1133636516F0AA
:10840000A5FA074694F88401C0F3420016F0A0FADA
:10841000074406FB07F7244B07F5742707F23F27AD
:10842000A3FB0737BF0C636DE76405FB07F0720819
:108430000344963A934228BF1346C4E91423049B8D
:10844000144D40F2E24808FB03F3E3650023A0FB70
:108450000501C4F88C310CA3D3E90023FEF750FECC
:10846000124B059AABEB000BA3FB0230800A08FB12
:1084700000F0A0FB050104A3D3E90023FEF740FEB2
:10848000F71B20F07F455AE78D49FD1A07000000D1
:108490008C49FD1A00CA9A3BCC380500843405008B
:1084A000AC3305007FC3C90183DE1B435917B7D125
:1084B0002DE9F04F0B6891F81180D3F80090037FFD
:1084C000176895B00446C3F38013D0F81E008DF8EA
:1084D0003F30B8F1FF0F638C12900E461546ADF891
:1084E0004C300DF1480A4DD19AE803001090ADF8D8
:1084F00044102346E28D53F82EBB9B78AB722A8141
:10850000D4F82A306B60D4F83A30C5F8223005F13F
:10851000220094F83E30037105210AF01DF895F809
:10852000273000F03F0060F3050385F8273094F80A
:108530003F30C3F3040285F82820A28EEA82012886
:1085400003F01F0392B205D91B3303F01F030B2B5B
:1085500000D81ABB0022C9F8142095F82C3062F319
:10856000000385F82C30E56801265846214626711F
:108570000CF0A2F928682E7129460CF0A9F915B063
:10858000BDE8F08F10AA0DF13F01404614F0BCFC8D
:108590009DF83F3002338DF83F30AAE73368002161
:1085A0005960E38EEA8A2B8340F2E24303FB02F236
:1085B0000B92628E0D92384611F062F994F83F20CA
:1085C00097F88411520962F3430187F8841116F079
:1085D000BDF90C9097F88401C0F3420016F0B8F989
:1085E0000C9A0B99104401FB00F0BF4A00F574206F
:1085F00000F23F20A2FB00204A08800C963A286334
:108600006A6394F8312040F2E24302FB03F36B64A7
:10861000238FA7F89C31384611F01EF90B99B34B04
:10862000B34AC7F8A0210B44B3FBF1F39AB2A7F801
:108630009621298B881D824204DDC1F57F41FA31E4
:108640000A4492B2A7F892216B68C7F88831234692
:1086500013F81C2FC2F340120C92DA0700F10181CB
:108660004FF48073A38399F8260015F051F904F1B3
:108670002B03002800F0F180626AC4F82B20228DC1
:108680009A80B8F1FF0F00F00F81BAF80430129809
:10869000A4F82930C4F825009DF83F30A37710983E
:1086A000BDF84430C4F81F00A4F82330EB8A638679
:1086B0002B8BA386B7F89C31E38697F88431C3F3FC
:1086C000420384F8383038460EF0EAFEA882E08093
:1086D0002146584674680CF0EFF8AB8AE3801C23FF
:1086E00023710C9BD4F80080002B40F0D1800C9BB0
:1086F0002377214640460CF0EBF895F86700B5F873
:108700005C80B5F85E40012100F0070015F0E8FE3E
:10871000444404F2D514DFF8E481044482467548E9
:108720004FF096130721C5E90333E4FB0801312319
:108730000024BB607C606AA3D3E90023FC60FEF7E1
:10874000DFFC20F07F4038610B9B2D6B0D995D1B8A
:10875000F36840F2E24202FB013303F2B341A1EBC2
:108760000A0A22460221012009F0A8FD48460EF01F
:1087700049FB0246AAFB0801924659A3D3E900230C
:10878000FEF7BEFCCDF80490B3685B49009120F081
:108790007F480AF102023A3BD2B24344012120460B
:1087A0000BF056F9012800F0858099F82430DB079A
:1087B00066D438460EF074FE504BA5FB03A9044660
:1087C00047A3D3E9002350464946FEF799FC4C4B9A
:1087D000B6684C4A079220F07F45A5FB0331BAEBFF
:1087E0000300494B05934FF4F573069708933B69D3
:1087F0004FF0000BCDE903B34FF0070303FB051166
:1088000069EB01014FF47A720023FEF779FC03341F
:108810003A3EE4B2CDE90150CDF80080334622461D
:10882000012158460BF03EF810F0FD0F0DD0374AED
:108830003749384840F2EB1322F0D9F98BF311880D
:10884000BFF36F8F0323184602DF01220221104677
:1088500009F034FD15B0BDE8F08FC4F82B00988006
:108860000FE72A4A2C492B48FD2322F0C0F90023A8
:1088700083F31188BFF36F8F0323184602DFEFE6FF
:10888000002301220093184611460BF09FF890E751
:1088900095F8273043F0400385F82730281D14F061
:1088A0003DF90123288523E70022C4F82520A4F8F8
:1088B0002920F1E60CF0CEF881453FF476AF134A5B
:1088C0001649144840F2922322F091F984F311885A
:1088D000BFF36F8F0323184602DF66E7AFF3008014
:1088E0008D49FD1A0700000083DE1B437FC3C901C9
:1088F000404B4C008C49FD1AADC8030000CA9A3B9E
:108900008D49FD1A79C80300EDC80300EC3E05004F
:1089100090390500AC330500A0360500483F05003E
:1089200010B5334C3349002304F1FF3C14F83320D5
:10893000072A02EB820E05D811F83E206FF345128C
:1089400001F83E201CF833206FF300020CF83320AE
:108950000133082BEAD1284A284C002313700A78E7
:1089600063F300020A7091F8282063F3000281F893
:10897000282091F8502063F3000281F8502091F8EC
:10898000782063F3000281F8782091F8A02063F347
:10899000000281F8A02091F8C82063F3000281F85A
:1089A000C82091F8F02063F3000281F8F02091F8DC
:1089B000182163F3000281F81821114A9FED0A7B08
:1089C0001370104B83ED007B0F4B236028B1BDE883
:1089D00010400E490E4828F041BEBDE810400C483A
:1089E00028F048BEAFF30080FFFFFFFFFFFFFFFF4F
:1089F000E1320020A0310020D44C0020B030002013
:108A0000D34C0020E8160020A0BB0D0021D60300A7
:108A1000B8160020000000002DE9F04F8FB00DF1D6
:108A200037010446DFF8E0A0DFF8E0800DF1360002
:108A30000BF0BEFF9DF836309DF837B00B930BF06E
:108A40004BF8DAF80060A6FB085629A3D3E9002307
:108A50000027814631462846FEF752FBCDE90777CD
:108A6000069420F07F44DAF80400234B0593A0FB22
:108A700008011FA3D3E90023FEF742FB1F4B20F0A0
:108A80007F40A4FB0331072202FB0411CDE90370F0
:108A9000E81A66EB01014FF47A720023FEF730FB0F
:108AA0000097CDE901404B460B985A4603210AF046
:108AB000F9FE10F0FD0404D06FF08B000FB0BDE89C
:108AC000F08F0F480F4A00231FF0EAF920B9DAF8B7
:108AD0000C000FB0BDE8F08F9DF837209DF83600F0
:108AE0000094234603210AF071FF6FF07300E5E75D
:108AF0008D49FD1A07000000CDDB03008D49FD1AEA
:108B000054330020447B0B006C33002000CA9A3B96
:108B100038B50F4D04460AF0DFFFA9680AF0DEFF02
:108B2000696803460B48B3FBF4F4A1FB00011C4445
:108B300005A3D3E90023FEF7E3FA20F07F40844247
:108B400094BF0020012038BD8D49FD1A07000000A8
:108B50006C33002000CA9A3BF0B5C468636883B0E8
:108B60000546002B64D117F0BFF9002017F0E2F999
:108B70000021084617F0D0F900222521082017F01F
:108B80000DFA474B019301A817F0F4F9454940F25B
:108B90005B6017F0A5FA237AC3F3420262F306136F
:108BA0002046237216F0F0F814F08EFF58BB637A5B
:108BB0009B071FD127682E68384615F02BFC06440A
:108BC0006A6806F10901012017F0D2FB17F090FC4A
:108BD00020460EF023F9811C3246C9B2384615F002
:108BE00027FC054678BB204615F0BCFB88B9002061
:108BF00003B0F0BD012014F0D5FB4178821C007851
:108C000017F056FBD6E7607A10F0030018BF01207A
:108C1000F1E7254A2549264840F2294321F0E7FF9C
:108C200085F31188BFF36F8F0323184602DFDEE759
:108C300093F82C309A0796D01E48214617F012F967
:108C400017F0F8F9D3E7184A1B49194840F21143C5
:108C500021F0CDFF194B0721A5FB030301FB0531D3
:108C60000DA3D3E90023FEF74BFA15490246154838
:108C700021F0BDFF002585F31188BFF36F8F03231B
:108C8000184602DF1048214617F0ECF817F0D2F929
:108C90006FF08B00ACE700BF00CA9A3B00000000F9
:108CA000D6BE898E555555004443050080350500D4
:108CB000AC330500C1E50300843405008D49FD1A7D
:108CC000F4430500C84305005DE90300000000000F
:108CD0002DE9F041C468A28A4FF6FF739A4282B030
:108CE00000F0DF80054616F093FB2B89628B208C09
:108CF000A3831A4492B2104494F82730E28380B2DE
:108D0000411C21845E064FF00001618304F12201C1
:108D100000F1A18003F03F000B4694F8281000906A
:108D200004F1290013F0B2FE0646D4E90C31A28BFF
:108D300002FB0333A26B1344E26B8B4294BFD21845
:108D400052188A4228BF0A46E263616C226C94F88A
:108D500067301144616494F87E2094F82C10C3F3BA
:108D6000020363F3061112F004024FF0000384F8CB
:108D70002C10A363236478D017F0B6F8002017F006
:108D8000D9F8201D17F0F6F82389A17A40F25B602C
:108D900043EA014117F0A4F9304615F05BFB214688
:108DA000594817F05FF8A08917F0D6FA94F86620B2
:108DB00094F86700C2F3C003002102F0070200F03C
:108DC000070017F0F3F9204616F0CCFB27682E6851
:108DD000384615F01FFB06446A6806F109010020B9
:108DE00017F0C6FA804617F057FB002017F06EFB0D
:108DF000E36B94F8670003F12F02636C00F0070047
:108E0000012103EB420517F007F94544054494F8A6
:108E1000670000F00700022825D004280CBF4FF49B
:108E2000BC73282301211D4417F0F8F8284417F0DB
:108E300025FBA18A03313246C9B2384615F0F8FA4B
:108E40000546002834D1204615F08CFAD0B9002010
:108E500002B0BDE8F0810A4603F03F03218D13F014
:108E600061FE064661E71823DCE7D4E91A0109F040
:108E7000EDF9002880D194F87E3043F0040384F8A3
:108E80007E3079E7214A224922484FF4B07321F01D
:108E9000AEFE85F31188BFF36F8F0323184602DF00
:108EA000D5E71D48214616F0DDFF17F0C3F8CEE7E1
:108EB000164A1A4917484FF4AB7321F098FE184B25
:108EC0000721A5FB030301FB05310DA3D3E9002313
:108ED000FEF716F913490246134821F088FE0025D3
:108EE00085F31188BFF36F8F0323184602DF0F4805
:108EF000214616F0B7FF17F09DF86FF08B00A7E73B
:108F000000CA9A3B00000000DDF703008044050022
:108F100080350500AC330500C1E50300843405004D
:108F20008D49FD1AD4440500C84305009DE50300A2
:108F3000014826F0A4B800BF2C250500012B07B579
:108F40000FD112780848012A14BF002257228DF849
:108F5000072000210DF1070226F004F803B05DF8A8
:108F600004FB6FF08500F9E72C250500012B13B5F4
:108F7000144611D10A480DF10702002126F017F816
:108F8000002807DB9DF80730A3F1570253425341F5
:108F90002370002002B010BD6FF08500FAE700BF1B
:108FA0002C25050001481FF055B900BFA002002084
:108FB00007B528F0DEFC4FF47A72A0FB020302FB37
:108FC0000131C00B074A40EA4140106000234FF4D2
:108FD00000420548CDE9002320F004F8002003B04A
:108FE0005DF804FB581B0020D0080020014B1878C6
:108FF00000F02EBADA4B0020044B1A78824202D0DD
:109000001870FFF7F3BF0020704700BFDA4B002055
:1090100008B528F0AEFC4FF47A72A0FB020302FB05
:109020000131084AC30B126843EA41439B1A47F2D5
:109030003052934204DDBDE808400120FFF7DCBF59
:1090400008BD00BF581B002008B528F092FC4FF463
:109050007A72A0FB020302FB0131C00B044A40EA12
:1090600041401060BDE808400020FFF7C5BF00BFC9
:10907000581B0020014B1878704700BFDA4B0020C6
:10908000F8B5044610B900252846F8BD0378002B32
:10909000F9D00F4E0F4FBE420FD30D4EBE42F2D24B
:1090A000306828F018F830B1356821462868FEF796
:1090B00041F80028E8D00436F0E7306828F00BF8D3
:1090C00018B135682B68A342DED00436E3E700BF51
:1090D000E46B0500F06B050070B5194C194D8CB0B0
:1090E0000022002303A920461EF044FD08B10CB065
:1090F00070BD2B68059E5868DDE9031221F0C3F9A5
:109100000028EDDBFF238DF81830B6FA86F35B09F3
:1091100007908DF8203028F02CFC4FF47A72A0FBD9
:10912000020302FB0131C00B40EA4140C90B8DE84C
:10913000030006ABCDE90A010FCB00F0A3F9CFE79E
:10914000D8090020181C00201FB50A4C2468A46808
:1091500084420DD183F00103CDE901120393064847
:109160000022002301A91EF0A7FC04481FF072F89A
:1091700004B010BD181C0020D8090020081C0020D5
:109180001FB50023CDE90233044B8DF80C0001A874
:10919000019321F0A8F905B05DF804FBEC2C050063
:1091A000044B1A68044B9A4214BF6FF0120000205F
:1091B000704700BF181C0020D82C050038B50446A5
:1091C00028B3144D2B6883421FD02BB1986818B177
:1091D00083685B6803B198470F49104B8C4214BFFA
:1091E000ED2100212B22002021F067F900280DDB62
:1091F000A0682C6048B1836809491B6898472B68B0
:10920000986883689B6803B19847002038BD6FF069
:109210001200FBE7181C0020D82C05005C1B002066
:109220004991020038B5054648B90648FFF7C6FF20
:10923000041E02DB2846FFF7A3FF204638BD6FF06F
:109240001504FAE7D82C0500F7B50C4615460D496C
:1092500001AA1E4622F07CFA68B1019B6BB9012C71
:109260000DD1094F224639463046A847002802DD75
:109270003878FFF7D7FF03B0F0BD0020FBE76FF0B1
:109280001500F8E7B3550500800800200148FFF7F6
:1092900095BF00BFD82C050008B50749074828F03E
:1092A00090F9074A002342F8043B01332B2BFAD1F3
:1092B000BDE80840FFF7EABFD9900200081C002073
:1092C0005C1B002030B51D4C04EB00148FB06068AF
:1092D00083684021DB68984768BB04AD04906860F0
:1092E0006189606883682A461B69984718BB95E8BE
:1092F00003000123069307AB83E803006389ADF8FD
:10930000243028F036FB4FF47A75A0FB053205FBBC
:109310000121DB0B43EA4143C90BCDE90A31237B31
:109320008DF830300EAB13E90F008DE80F0006AB5F
:109330000FCB00F0CDF80FB030BD00BFC002002051
:1093400010B5134CBFF35B8F54E8002F22F00101DE
:1093500044E800100028F7D1BFF35B8FD20702D595
:109360000020FFF7AFFFBFF35B8F54E8003F23F00F
:10937000020244E800210029F7D1BFF35B8F9B076D
:1093800004D5BDE810400120FFF79CBF10BD00BF11
:109390001C1C0020064901EB0012506830B18368A4
:1093A0009B68114608310BB1024A1847704700BF4D
:1093B000C0020020B993020010B5104C0C1B102CF9
:1093C0001BD8241128F0A6F990B1BFF35B8F0123BD
:1093D0000B4AA34052E8000F184342E8000100295D
:1093E000F8D1BFF35B8F0748BDE810401EF032BFD5
:1093F0002046BDE81040FFF765BF10BDC802002041
:109400001C1C0020B0020020F8B50F4D0F4E761B3B
:1094100007460C4605EBC105C6F3C706A64201DCAC
:1094200000200CE02A683B689A4209D13C716B68C5
:1094300038461B68984718B1431E012BF0D9F8BD78
:1094400001340835EAE700BF445F0500745F05009A
:109450001FB50023CDE90233044B8DF80C0001A8A1
:10946000019321F040F805B05DF804FBF02C0500F5
:109470000268034B9A420CBF08300020704700BFBF
:10948000F02C050084B030B589B00CAC84E80F0036
:10949000002301930CAD084B00930FCD02AC0FC419
:1094A00095E8030084E80300684621F01CF809B041
:1094B000BDE8304004B07047F42C05000268034B4F
:1094C0009A420CBF08300020704700BFF42C050002
:1094D00084B030B58BB00EAC84E80F00002301934C
:1094E0000EAD084B00930FCD02AC0FC495E80F00F2
:1094F00084E80F00684620F0F6FF0BB0BDE830406E
:1095000004B07047F82C05000268034B9A420CBF68
:1095100008300020704700BFF82C05001FB500235D
:10952000CDE90233044B8DF80C0001A8019320F023
:10953000DAFF05B05DF804FBFC2C050082B038B5FD
:1095400004A981E80C00054611481EF005F90446FF
:10955000A0B16B68012B0CD0022B05D0A3B9BDE8DC
:10956000384002B020F0DFBF20F0E4FF00282046A2
:10957000F5DCBDE8384002B020F0CEBF6FF004004B
:10958000BDE8384002B070476FF08500F8E700BFD3
:109590007156050082B010B502A981E80C0004469E
:1095A0000B481EF0D9F878B16368022B04D0002074
:1095B000BDE8104002B0704720F0BCFF0028CCBFCF
:1095C000002001206060F2E76FF00400F0E700BFC8
:1095D000715605001FB50023CDE90233044B8DF809
:1095E0000C0001A8019320F07EFF05B05DF804FB9C
:1095F000342D05000268034B9A420CBF083000204E
:10960000704700BF342D050008B500F0D1FBBDE860
:109610000840014927F0F1BFE002002007B50848E3
:1096200027F059FD48B14FF4F0120023CDE9002393
:109630000448002200231FF0D5FC03B05DF804FBB2
:10964000682505000809002008B5FFF711FF10B9CB
:109650006FF0850008BDFFF70DFD38B10138C0B2CD
:109660000128F5D8034828F0CBF901E0FFF7D6FF31
:109670000020EFE70809002037B5104CA56830211D
:10968000EB6820469847B8B930212B696A462046D6
:10969000984788B90A4C00982378834204D0C0B216
:1096A0002070FFF797FF38B901F08AFD23789842C0
:1096B00002D0184601F08AFD03B030BD68250500D0
:1096C000DB4B002008B5054827F005FD18B1FFF772
:1096D000A5FF002008BD6FF01200FBE7682505001C
:1096E0001FB50023CDE90233044B8DF80C0001A80F
:1096F000019320F0F8FE05B05DF804FB3C2D050059
:1097000008B5BDF808101944012908DC3BB1054B28
:10971000127805481A701EF09DFD012008BD6FF0FB
:109720000600FBE7DC4B002060030020014B1878AB
:10973000FFF778BDDC4B00201FB50C240294044CCD
:109740000194BDF81840009424F0A0FC04B010BDB2
:10975000014C00201FB510240294044C0194BDF864
:109760001840009424F092FC04B010BDF14B00208E
:1097700007B5064B00930649064805234FF440728F
:109780001EF06EFD002003B05DF804FB402D0500C7
:10979000004D0020700C002070B50F4D0F4E8AB0A8
:1097A00000220023694628461EF0E4F9044608B169
:1097B0000AB070BD2146182204A828F0CEF9102363
:1097C0000DEB030120460596CDF818D0ADF81C30FE
:1097D00007F056FAE4E700BF080A00205C2D0500F8
:1097E000F0B50E4E0E4D0F4F87B00C4900220023EE
:1097F00028461EF0BFF9044608B107B0F0BD214667
:109800001822684628F0A9F90C2369462046CDE9BC
:109810000176ADF80C3007F033FAE6E7014C002092
:10982000380A0020E82D05001FB50E490E4840F605
:10983000CD4200231EF040F9044670B110F10B0F29
:1098400008D100220023694607481EF093F9FFF76C
:10985000EBFF0446204604B010BD0449044827F03D
:10986000CCFEF7E7F14B0020080A0020000300209F
:10987000700C002030B589B001AD85E807000F48B5
:1098800040F6CD42002329461EF016F9044680B169
:1098900010F10B0F0AD10022002305A907481EF082
:1098A00069F995E80700FFF7E5FF0446204609B08F
:1098B00030BD0349034827F0A0FEF7E7380A00202F
:1098C000F0020020700C002030B50378012B85B029
:1098D00018D0032B0FD063BB4378174D03F007015B
:1098E000DC0801238B4081782A5DDBB231B1134360
:1098F0002B55FFF799FF002005B030BD22EA030287
:109900002A55F6E78DF80530D0F80130CDF806304D
:10991000D0F80530CDF80A30C27AB0F80930ADF889
:109920000E308DF8042004AB13E90700FFF7A2FF07
:10993000E1E76FF08500DFE7F14B0020014B197084
:10994000704700BF104C0020014B1860002070478A
:10995000201C0020084A094B12781B78002062F373
:109960000700074A12785B0062F30F20DBB282B077
:1099700063F3174002B070470D4C0020114C0020DB
:109980000E4C002013B50C4B1C6894B1FFF7E2FF9E
:109990008DF80400C0F30723C0F307408DF80530AD
:1099A0008DF8060001990548234602B0BDE8104035
:1099B000184702B010BD00BF201C0020F06B05004E
:1099C00010B5002003F0C8FA044610B9024821F08F
:1099D000BCFE204610BD00BF7003002010B5084833
:1099E00005F008F9074805F01BFA074B0748002463
:1099F0001C70074B01221A701EF02CFC204610BD73
:109A0000AC0300209C0300200F4C00208C0300209E
:109A10000D4C0020044B1B782BB1044B0448002252
:109A20001A701EF017BC70470E4C00200F4C00201F
:109A3000D00300200C4B07B5187030B10B481EF056
:109A400009FC002003B05DF804FB019008490120E7
:109A500001AA04F08DFE019810B1132123F0DFF864
:109A600004F02EF9EDE700BF0E4C0020D0030020DB
:109A700047A604000B4BB1FA81F010B540090C4623
:109A80001870FFF72DFE3C2C0AD1074B1B783BB119
:109A9000064B074801221A70BDE810401EF0DABBE1
:109AA00010BD00BF114C00200E4C00200F4C0020B8
:109AB000D003002070B503788AB004460E4607AD87
:109AC000032B20D8DFE803F002191B1D114928469B
:109AD000FDF73AFB059563780493A3780393E37845
:109AE00002932379019363790093A3790A4A1E2193
:109AF00030461FF0FFFA0AB070BD0849E7E7084991
:109B0000E5E70849E3E7084A0A2128461FF0F2FA88
:109B1000E0E700BFA4570500CD570500AB5705008F
:109B2000B2570500BC570500C657050000B589B0FF
:109B300023F020F96946FFF7BDFF044B00201870A1
:109B4000FFF7CEFD09B05DF804FB00BF114C00200B
:109B500070B5204E204B3068B2881C781F49B3790D
:109B60008AB003AD0390ADF8102000202A46AB71F7
:109B700008F064F931460722284628F074F9184B9A
:109B80000646D0B1ACB903202246214601241C7000
:109B90000023CDE90602CDE90815ADF814308DF8A3
:109BA000163000931A46194605A804F057F80AB073
:109BB00070BD1320A022F021E8E70A4D18700FCDE8
:109BC00005AC0FC42B682360074900963346032277
:109BD000EAE700BF8E5805000F4C0020ED9B020005
:109BE000104C0020D0280500482E050038B507226B
:109BF0000C460649054628F036F928B12B68236043
:109C0000AB88A380AB79A37138BD00BF8E58050027
:109C100000487047F06B050073B5194C194EB442FB
:109C2000254602D36FF0120008E02B689B680434CD
:109C300033B9154C2368AB4211D1002002B070BD7E
:109C40009847C0F307238DF804008DF80530C0F362
:109C50000743C0B28DF806300028E0D0E9E723B111
:109C60001B685B680BB1002098472B6825605B6818
:109C7000002BE2D0012002B0BDE87040184700BFC1
:109C8000F06B0500F46B0500241C002007B5094BA0
:109C900001911B68834207D19DF8063033B903B0A8
:109CA0005DF804EBFFF7B8BFFFF7B6FF002003B085
:109CB0005DF804FB241C002070B5094C094D0A4EC8
:109CC000AC42234603D3BDE87040FFF7A5BF1B6835
:109CD000DB680434002BF3D030469847F0E700BF30
:109CE000F06B0500F46B05008D9C0200054B1B68B2
:109CF00023B11B6813B11B6803B118476FF0120042
:109D0000704700BF241C002008B5044800F072FF13
:109D1000002818BF6FF0150008BD00BF499D020064
:109D2000084B1B780B2B4FF001000AD8984010F419
:109D3000CD6F05D110F4016F0CBF012000207047DA
:109D400002207047950800200A2808B5024613D063
:109D50000A4B0B491870FFF7E3FF02280AD10B7872
:109D6000032A08BF43F001030B70BDE80840054813
:109D70001EF070BA0023F7E708BD00BF9508002069
:109D8000124C0020E003002007B5064B0093064963
:109D900006480A234FF440721EF062FA002003B016
:109DA0005DF804FB642E050080500020580D002053
:109DB00000487047580D002010B5094C0A449142E4
:109DC00000D110BD11F8013B584003090001E35CCC
:109DD000C0B2434018091B01205CDBB25840EEE7DB
:109DE00017580500014B1B68184700BFF0030020FF
:109DF00030B585B004460D4610220021684627F094
:109E0000ACFE02238DF802302A46044B0193214612
:109E100068461FF09DFA05B030BD00BFE59D020009
:109E200080B505460E46174698461EF0FDFD0346D2
:109E300028F02EFADFF81890044649F80030424620
:109E400030463946A84754F8090001F0D5FD00BF57
:109E50000800000008B50446EFF31183202383F3C4
:109E60001288BFF36F8F1AF0D1F9204601F0B2FDCE
:109E7000024820F0AFFE21F0C1FDFCE727580500A5
:109E80002DE9F047058B04462807904611D4022996
:109E900005F0070540F0CC80204620F049FF78B15E
:109EA0000138218B042811D8DFE800F0C2106D853D
:109EB000950001290CBF45F0100545F020052583CC
:109EC00088F31188BFF36F8FBDE8F08701F0070AB0
:109ED000AA4500F0A5800027B9463E46A368002B9E
:109EE00000F0BC8041F00801218388F31188BFF3A2
:109EF0006F8FA168002900F0BA800D68002900F07A
:109F0000B680D1F80480334652462046C047002D23
:109F100076D02B6829461D46F0E701F007035A1F4B
:109F2000012A1BD8002221F00701062B276889B2DD
:109F3000C4E9002209D13B4603E0628B013262830F
:109F40001B68002BF9D141F002012183204620F04B
:109F5000EFFE00287AD041F0200176E0042B0AD1F0
:109F600021F0070189B22183204620F0E1FE10B1E3
:109F700041F020012183218B01F0070AAA454FD02F
:109F80000027B946AAE7236921F0070141F006013D
:109F9000062DD3F8009021832DD1B9F1000F3FD0C9
:109FA00041F00801218388F31188BFF36F8F3A498C
:109FB0002046C84729E021F00701236941F0040148
:109FC00089B2042DD3F804902183E6D000273E46C1
:109FD0004FF0040A82E721F00701236941F00501EF
:109FE00089B2052DD3F808902183D6D000273E46AC
:109FF0004FF0050A72E700273E464FF0060A6DE76C
:10A000002B4687E7B9F1000FD1D1EFF31188202358
:10A0100083F31288BFF36F8F238B23F0080323830E
:10A02000258BEA062ED525F01003238305F00705BE
:10A030006669218B002EBFF670AF00232768C4E944
:10A04000003321F0070141F001012183218B01F050
:10A05000070AAA454FF000097FF440AF002F9CD0BB
:10A0600041F00801218388F31188BFF36F8F002F1F
:10A07000C8D03D68394633465246204620F084FE1B
:10A080002F46F4E7AB067FF51BAF25F020032383B3
:10A0900005F0070500E700BFB5AD04002DE9F74363
:10A0A0000F4606460821C06ADFF8509020F0CFFF27
:10A0B0003C68241A80463C6004EA0905AC4203D897
:10A0C000002003B0BDE8F08308236A4621463046ED
:10A0D00020F055FF0028F4D16946304620F0C1FF3A
:10A0E00040B1BDF80230BDF804203C6005EA090526
:10A0F00013441D44A4EB0804E0E700BF0000FFFF89
:10A1000073B504460821C06A124E20F0A0FF4FF636
:10A11000FF726368ADF800208DF80620A289191837
:10A1200033401344181A002560606846ADF80210E9
:10A13000ADF8045020F082FF6946204621F051F826
:10A140002046211D20F054FF636828463340A36059
:10A1500002B070BD0000FFFF2DE9F047044688B053
:10A1600000F11407384627F0C0F8A06A8368DB685E
:10A170009847E06228B96FF01505284608B0BDE899
:10A18000F087A06A8368DB6898470368013B1F2B50
:10A19000F1D8A06A216805AA25F0E3F80028EAD1E1
:10A1A000A589002DE7D0069BB5FBF3F203FB125502
:10A1B000002DE0D1E389012BDDD9E36A009593F806
:10A1C00005904FF0FF334FF0FF3238461DF034FD5D
:10A1D000E06A082120F03BFFA8460646E3891FFA03
:10A1E00085FA534508D8E389434523D138461DF005
:10A1F0009BFD6FF02C05C0E7A1892B04891B13FA86
:10A2000081F14A4608232046009120F0C6FE78B12D
:10A210006946204620F0ECFE08F101080099082369
:10A220004A4620461FFA88F820F0B7FE0028DAD008
:10A230000135D3E753450BD1009908234A46891BC2
:10A24000204620F0AAFE18B96946204620F0D0FE2C
:10A2500069462046FFF722FF054618B138461DF033
:10A2600063FD8AE7009B63604FEA13484FEA0848A2
:10A27000C4F80880D4E9011399420FD3082301AA36
:10A28000204620F07CFE05460028E7D101AB13F8FC
:10A29000012B914533D10135082DF8D163681B0C92
:10A2A0001B0469462046009320F0A2FEA389009972
:10A2B0004A46204620F071FE051ECFDB636876D04B
:10A2C00006EB03084FF6FF79A389CDF800801FFA4B
:10A2D00088F29B1B9A422ED300236168002B43D047
:10A2E000090C090400912046694620F081FE00997E
:10A2F000204620F08AFE0546002D74D0AEE701A965
:10A30000204620F0AEFE626810B9921B6260B1E791
:10A31000BDF80850BDF80610E06AC4F8088029446A
:10A3200020F095FE40449042A060EED1002DECD08C
:10A330006FF01C0568E0082303AA4146204620F080
:10A340001EFE0546002889D103A9204620F089FE7B
:10A3500030B1BDF80C304B4502D1BDF810300BB117
:10A36000B044B1E70123B8E7204620F04EFE054691
:10A3700000287FF473AF6368264AA18913400B4419
:10A38000A3EB460363601340A360204620F051FF17
:10A39000B1E75B1A4A46204620F0FFFD051EFFF696
:10A3A0005DAF08D0E26AA36812681344A360D4E9E1
:10A3B00001318B42EDD86168A38901EB46029A42D4
:10A3C0009AD1DFF85080A26801EA08039A4293D03C
:10A3D000204620F01AFE054600287FF43FAF636850
:10A3E00003EA0803A360A389A288A3EB46039A4269
:10A3F00006D038461DF098FC012323740025BCE6E6
:10A40000204620F0FFFE054638461DF08DFC002D4D
:10A41000F2D0B2E60000FFFF014B0360002070475E
:10A420006C2E050070B5104B1C680D46B4B10F4B77
:10A43000196800238B4202DB6FF0010070BD2246D9
:10A4400012F8106B864202D001331446F2E7E0683E
:10A4500026F041FE28B12C600020EFE76FF00C00E1
:10A46000ECE76FF01200E9E7F40300206C2E050022
:10A4700010B588B0436802938368C068CDE90332A1
:10A480000A680023CDE906230C4601AA0449059376
:10A4900024F06BFF079808B9059B236008B010BD36
:10A4A00041B60400F0B40C4B0C4E5F6A0C4BB34247
:10A4B00003D36FF08500F0BC70475D68BD4209D3DF
:10A4C0001C693CB195F802C00579AC4502D1234620
:10A4D000F0BC18472433EAE7281C00206F0C00204A
:10A4E0006F0C00202DE9F047134CDFF85080DFF8A7
:10A4F000509005460E461746444503D36FF085003D
:10A50000BDE8F0876268D9F824309A4212D3A36973
:10A5100083B190782979884205D13A463146284658
:10A52000BDE8F04718475279012A03D13A4631462F
:10A53000284698472434DFE76F0C00206F0C00207A
:10A54000281C00202DE9F0410B4CDFF83080054637
:10A550000E461746444502D36FF0850009E0636953
:10A560000BB92434F6E73A46314628469847002886
:10A57000F7D1BDE8F08100BF6F0C00206F0C002008
:10A5800010B5044624F0D3FD10F1780F00D050B977
:10A59000054A204621F08FF8D2F8C43023EA0003A0
:10A5A000C2F8C430002010BD281C0020024B00223D
:10A5B0001A605A60704700BFE31C002070B50B4B57
:10A5C0000B4CA34201D3002070BD196A1E7F0022EC
:10A5D0000439D5B2AE4201D82433F2E7013211F882
:10A5E00032508542F5D10120EEE700BF6F0C00200C
:10A5F0006F0C002008B509480378C3F341130A33F0
:10A6000050F823303BB100F1080200F110019847E7
:10A61000C043C00F08BD1846FCE700BF281C00203F
:10A6200004282DE9F14FDFF8A09004460F4616D01C
:10A6300001282DD1DFF88C8098F8B93043B300F0B1
:10A6400061FD1F4D4D4520D2D5F820B04FF0000AD6
:10A650002B7F5FFA8AF6B34204D82435F2E7FFF77E
:10A66000A5FFE7E70BEBC6060AF1010A307924F0F3
:10A670005EFD0246307921F01EF8D8F8C430002A79
:10A6800023EA0003C8F8C430E2DA002388F8B930BE
:10A690000B4D4D4508D30B4B1B6A6BB13946204619
:10A6A00001B0BDE8F04F1847EB681BB13A462146B0
:10A6B000284698472435ECE701B0BDE8F08F00BF8D
:10A6C0006F0C0020281C00206F0C002073B5C4B252
:10A6D00063060D468DF8074007D02046FFF76EFF52
:10A6E00078B10D4B93F8BA0058B10B4E204655B1D6
:10A6F00016F018FEF3691BB10DF107010820984709
:10A70000012002B070BD16F035FEF369002BF7D0C2
:10A710000DF107010920F2E7281C002073B58678A7
:10A720008DF80060037942791C4C43EA0223ADF8AE
:10A730000230C378304603F003038DF8043020F074
:10A74000BAFFD4F8C430184205460BD0304600F0AA
:10A75000BBFC3046FFF714FF26F0DCFF10B9962053
:10A760001EF020F9684616F0B9FD10F1780F03D0FD
:10A7700010B1002002B070BD9DF8000016F036FE4A
:10A7800010F1780F01D00028F3D1D4F8C4300120A3
:10A790002B4384F8B900C4F8C430EBE7281C002030
:10A7A0002DE9F047A34EB36904460F461546FBB9A1
:10A7B000237803F01F03012B00F09D80022B00F093
:10A7C000048133BB94F900002A686178002834DAE8
:10A7D000062912D008292BD0D9B901231370517042
:10A7E00096F8C3305B0043F00103137002232AE1A3
:10A7F00098470028DCD100200DE06288100A011F74
:10A800000129844605D9072803D8716AD2B20C7889
:10A810001CB96FF01500BDE8F0874E78664503D18E
:10A820009A4200F00B8101332144F0E70B780AE1F2
:10A8300096F8BA301370012305E101390829E8D8E8
:10A8400001A353F821F000BFE1A8020013A8020001
:10A85000EFA8020013A802006DA8020013A80200CE
:10A8600013A8020013A8020079A80200A07816F02D
:10A8700023FD0028BFD0CCE76388756A63BBFFF770
:10A8800095FE638886F8BA30F369002BB3D06A4925
:10A8900003209847AFE76B78042B10D0052B11D01D
:10A8A000022B04D16F796388BB4208BF01202B784B
:10A8B0001D442B78002BEED10028AAD0DFE795F8B5
:10A8C0000380F4E76388BB42F1D1B8F1000FEED109
:10A8D0002846FFF723FFEAE7FF270020B846E8E70E
:10A8E0006388012B95D1002386F8C33083E7638802
:10A8F000012B8ED1F8E796F8BA30D5F800C0002BBE
:10A9000087D0756AA38894F804E02A461078002856
:10A910003FF47FAF5178022904D192F80480F045CA
:10A9200000F293800244F1E78CF800208CF80120BB
:10A93000396060E7154494E00B2A7FF46AAF002782
:10A940004FF0FF08C146BA4606E06B78042B0FD0E3
:10A95000052B21D02B781D442B78002BF5D1F369E2
:10A9600013B1514607209847002F7FF444AF50E7BA
:10A9700095F80280A38895F803909845EAD16388FA
:10A980009945E7D1B8F1070F1CD806EB0803AA4692
:10A9900083F8BB900127DDE7A3884345DAD1A3788C
:10A9A0004B450AD0AF78384600F08EFB3846FFF7AB
:10A9B000E7FDB0FA80F77F09CCE72846FFF7AEFE47
:10A9C0000746C7E7AA460027C4E794F90020637842
:10A9D000002A18DA002B7FF41CAF24792D68630657
:10A9E0000AD02046FFF7EAFD00283FF412AF96F8A0
:10A9F000BA30002B3FF40DAF2946204616F0DAFCA2
:10AA000000236B70F2E6012B08D0032B7FF401AF1B
:10AA10006388002B7FF4FDAE012103E061880029EB
:10AA20007FF4F7AEA088FFF751FE00287FF4E3AE75
:10AA3000EFE600BF281C0020E21C0020022829604D
:10AA40007FF4F4AE4B883B60D5E694F90000627861
:10AA50000028BFF671AF002A3FF466AF0A2A7FF4E0
:10AA6000D8AE2A78002A3FF4D4AE697804297FF45E
:10AA700061AFA9788B427FF45DAF072B96BF9B191E
:10AA8000002393F8BB308CF80030D4E613B5164C95
:10AA9000237DF3B9E268A168019201AB802020F028
:10AAA00018FE019AA3681344A360E3689B1AE3604D
:10AAB0006BB962B12369E2889A4208DD94F8C82034
:10AAC00093FBF2F102FB11330BB90123237502B0A2
:10AAD00010BD00231A4619468020237502B0BDE838
:10AAE000104016F0ADBC00BF281C002030B585B06A
:10AAF000002302460D460193002858D1002935D184
:10AB000008220B460DEB020124F02AFB002804DA90
:10AB1000802016F007FC05B030BD2A4C029A226056
:10AB2000039A626004F13802A2609DF90820BDF822
:10AB30000E302575002AC4E903550ADB802B04D9A1
:10AB4000802016F0EFFB0020E3E713B1C4E90333E4
:10AB5000E1E7FFF74FFD0028DAD0E28823699A4247
:10AB6000D4BFE260E360FFF791FFD4E7154CD4E96E
:10AB70000215002D01AB04DC24F0F2FA0028CADA39
:10AB8000C6E72A4624F0ECFA0028D9DB019AA3682C
:10AB90001344A360E3689B1AE360002BBBD104F16C
:10ABA0003803A360FFF726FD0028DCD1B0E780283A
:10ABB000B1D1044BDA68002AD5D11B7D002BD2D14C
:10ABC000A9E700BF281C0020054B064A9A62064AE6
:10ABD000DA62064A1A63064A58629A610020704790
:10ABE000281C0020A1A70200A5A4020045A5020080
:10ABF000E5A402002DE9F3410446474D47484FF0D4
:10AC0000FF334FF0FF321DF017F895F8B830002BE6
:10AC10007BD16B6A83B142482C62E8616E6A16F0A0
:10AC200029FD16F017FB041E10DA3C481DF07CF8D5
:10AC3000204602B0BDE8F08100F0BEF8FFF7C4FF87
:10AC40006B6A002BE7D14FF0FF34EEE700F07CFA9F
:10AC5000041EEADB7378012B5AD1F379002B57D00D
:10AC60000026684685F8C830ADF802308DF80460DB
:10AC70008DF8006016F032FB041ED6DB8027684694
:10AC80008DF8007016F02AFB041ECEDB25493046F5
:10AC900016F0DCFC041EC8DB2249384616F0D6FC50
:10ACA000041EC2DB204CDFF8848044451AD3002008
:10ACB00016F09CFB041EB8DBD5F8C430802043F0AE
:10ACC0000103C5F8C43016F091FB041EADDBD5F8C6
:10ACD000C43043F48033C5F8C430012385F8B8305C
:10ACE0000024A2E7276A0026227FF3B29A4201D805
:10ACF0002434DAE707EBC30257F83310107916F063
:10AD0000A5FC01360028EFD09DE76FF077048CE7B3
:10AD10006FF0150489E700BF281C0020C40900203B
:10AD200021A60200EDAA02006F0C00206F0C00208B
:10AD300030B51F4B8BB005AA03F110051868596890
:10AD4000144603C40833AB422246F7D11B78237064
:10AD50001022002101A826F000FF12220021154830
:10AD600026F0FBFE102101A824F04EFC00281BDD7C
:10AD70000828B8BF0820093801AB0E491A1800206E
:10AD800012F8013F0AAC04EB131403F00F0328334D
:10AD90006B44013014F8144C13F8143C0C70082860
:10ADA0004B7001F10201EBD102480BB030BD00BF86
:10ADB00050580500144C00202DE9F04F724B93F8C9
:10ADC00000B087B0BBF1000F03D0704807B0BDE8FA
:10ADD000F08F6E4C00264FF0011AB0463546B14652
:10ADE00023783BB96A4B02349C42F3D1664A012373
:10ADF0001370EAE76378052B1BD8DFE803F08E03B6
:10AE0000C38E1D39402304A88DF810B0ADF8123060
:10AE10008DF814B024F076F940B1082304A8ADF8F9
:10AE2000123024F06FF908B1ADF812B0BDF812304D
:10AE3000E37123781C44D3E7E378002BF9D1A3789E
:10AE40006BB108F101085FFA88F8F2E76B689C4281
:10AE500007D024354F4B9D42F8D30020B6E74E4D26
:10AE6000F8E7AB68002BECD0414620469847E8E76E
:10AE7000002DF2D000222B7F9A42EED2296AA078D0
:10AE800001EBC2010B79984201D00132F3E70127AF
:10AE9000E07800F003008DF81400207994F805C0E4
:10AEA00040EA0C20ADF8120094F902000028FBB231
:10AEB00028DA07F110004FF0010C0CFA00F010EA4C
:10AEC0000A0F26D143F080008DF8100004A8CDE9C8
:10AED0000213019224F016F9DDE90121039BC0B9A8
:10AEE0009DF81020A27012F0800F18BF10330A7165
:10AEF00018BFDBB24FF0010214BF9A40BA404AEAD1
:10AF0000020A96E70120B84010EA0A0F01D118465C
:10AF1000DAE70137102FBBD1B7E7032E1AD1FFF7BD
:10AF200007FF074650B1FCF717F9024630B1102869
:10AF3000A8BF10223946A01C26F0E7FD23786FF049
:10AF40000201E218091B04EB5303D14213D5013669
:10AF5000F6B26EE7002EF1D1B9F1000F3FF47DAFEC
:10AF6000A4EB090389F80230C3F3072389F80330FF
:10AF700089F80480EBE702F801BC13F8010902F834
:10AF8000020DE2E7A14654E7134C0020FC0B002021
:10AF90006F0C00206F0C00206F0C002010B5094BC7
:10AFA00000211A461C78844205D15C681CB14823F4
:10AFB00003FB012010BD0131042903F14803F1D145
:10AFC0000020F7E7F41C00202DE9F34150F8303C55
:10AFD00010F8346C103304460AD1036950F8282C59
:10AFE000980736D5D2B9590715D5002344F8303C17
:10AFF00054F8303C10330BD054E9097554F81C8CCC
:10B0000026F088FB00284FD02E48214626F0F5FA7E
:10B0100002B0BDE8F08143F00403236154F82C1C16
:10B0200001AB304620F055FB10B16FF01503DDE7A2
:10B03000019A54F82C3C134444F82C3C54F8283C16
:10B040009B1A44F8283C54F8243C134444F8243C0C
:10B05000CEE754F82C1C01AB304616F06DFA0028F0
:10B06000E3D1019D54F82C3C2B4444F82C3C54F87B
:10B07000283C5B1B44F8283C54F8243C2B4444F8FF
:10B08000243C002DB1D0304616F0FAFAB5FBF0F3AF
:10B0900003FB1055002DA8D154F8283C002BA4D058
:10B0A000304616F091FAA3E744F8200CA4F11800FA
:10B0B0001CF0BCFE002DABD0424639463046A847B6
:10B0C000A6E700BF8819002010B5EFF311842023F4
:10B0D00083F31288BFF36F8FFFF760FF50B14368AF
:10B0E000103307D16FF08B03436000F13401044843
:10B0F00026F083FA84F31188BFF36F8F10BD00BF71
:10B1000088190020F8B50E4C04252027EFF311868E
:10B1100087F31288BFF36F8F6368103307D16FF026
:10B120008B030848636004F1340126F066FA86F365
:10B130001188BFF36F8F013D04F14804E6D1F8BDDB
:10B14000F41C00208819002070B50A4C0A4E002516
:10B150003146204626F035FA0122A4F118001146A6
:10B16000013526F0ABF9042D04F14804F0D100209C
:10B1700070BD00BF281D0020C9AF02001FB5072405
:10B180000294044C0194BDF81840009422F07EFF14
:10B1900004B010BD9608002010B5084C86B0247885
:10B1A0008DF81740012402940DF117040194BDF8A5
:10B1B0002040009422F06AFF06B010BD9D080020D8
:10B1C000014B1878704700BF9D08002000B589B07A
:10B1D00064288DF8070019D80E4B1822187000212A
:10B1E00002A826F0BAFC0C4B03930DF1070304935D
:10B1F00002A901230020ADF8143005F041FD10F143
:10B20000800F08BF002009B05DF804FB6FF0150047
:10B21000F9E700BF9D080020502F05002DE9F041FF
:10B220000F4B1C6805460E461746ACB14FF0FF3277
:10B230004FF0FF330B481CF0FFFC63683246D3F835
:10B24000088029463B462046C047044605481CF076
:10B250006BFD2046BDE8F0816FF00104F9E700BF07
:10B26000141E0020B009002000230360044B5A681C
:10B2700012B9C3E90000704710605860704700BF02
:10B28000181E0020014B1860704700BF141E0020DC
:10B2900030B585B000230546CDE9023301904FF06B
:10B2A000FF330C484FF0FF321CF0C6FC0A4B1C6801
:10B2B0004CB9284600F0D0F8044606481CF034FD8E
:10B2C000204605B030BD636820461B6801A9984739
:10B2D0002468EDE7B0090020181E00201FB5CDE955
:10B2E000010103924FF0FF330A484FF0FF321CF088
:10B2F000A3FC094B1C682CB906481CF015FD204620
:10B3000004B010BD636820461B6801A998472468F3
:10B31000F1E700BFB0090020181E0020024B0022F8
:10B32000C3E90022704700BF181E0020024B002214
:10B33000C3E90022FFF7F2BF201E0020F8B51C4C25
:10B340001C4E05460F46B44212D31B4E1B484FF00D
:10B35000FF324FF0FF331CF06FFC34687CB128687B
:10B3600054F8181C183CFBF7E5FED0B1A469F5E7CA
:10B3700021682868FBF7DEFEB0B11834E3E700224D
:10B380006F60AA61726805F118033AB9C6E9003323
:10B3900000240A481CF0C8FC2046F8BD1360736006
:10B3A000F6E76FF01004F4E76FF01004F4E700BF65
:10B3B00020280500C8280500201E0020B009002014
:10B3C0002DE9F74307460C4609B100230B601F4DDA
:10B3D000DFF8809000264D450FD31D4B1D6885B3C7
:10B3E00055F8188C01AA41463846183D20F0B0F9AE
:10B3F00010B3D6B914BB2E461EE0D5F8008001AAC2
:10B400004146384620F0A4F950B116B954B92E4639
:10B4100006E031680022404620F09AF90028F5D174
:10B420001835D8E7019B2360F1E7316800224046D8
:10B4300020F08EF90028DDD1AD69D0E7019B2360B3
:10B44000D9E7304603B0BDE8F08300BF20280500EF
:10B45000201E0020C82805002DE9F047DFF8B09035
:10B46000DFF8B0A080464FF000470026274C3D464D
:10B470004C450DD3DAF80040002C42D0183CB8F10E
:10B48000000F25D122695ABBA469F5E72F46EDE7E5
:10B49000B8F1000F03D122694AB91834E8E72068EF
:10B4A0000022414620F054F90028F4D1F5E7636802
:10B4B000BB4205DDAF4209D09D42A8BF1D46ECE767
:10B4C000EBD19047002E08BF0646E6E71D46E4E7AD
:10B4D00020680022414620F03BF90028D2D1D3E772
:10B4E0006368BB4205DDBD4209D09D42A8BF1D4631
:10B4F000CAE7C9D19047002E08BF0646C4E71D46DB
:10B50000C2E7AF42C2D13046BDE8F087202805002F
:10B51000C8280500201E002038B50C4D0C484FF0FF
:10B52000FF334FF0FF321CF087FB2B783BB9FFF75E
:10B53000FDFE00F06DF8044610B901232B700024C5
:10B5400003481CF0F1FB204638BD00BF264C00200C
:10B55000B00900202DE9F047048FDFF8B0A00134D6
:10B5600098B006468946A4B200F10807651EADB240
:10B57000B5F5004F47D04A2305AA2946384620F0A2
:10B5800057F804F57F543F34A4B280462146012386
:10B590000DF10B02384620F04BF8B8F1000F0146D0
:10B5A00010DC002810DC338FAB4209D132466B1E11
:10B5B00022F8383F4FF40041022338461FF006FFBF
:10B5C0002C46D3E7002808DC294638461FF0CCFF7C
:10B5D000214638461FF0C8FFE5E708F160030DEB90
:10B5E0000308002308F84C3C5246CDF8009003AB0A
:10B5F00005A80397ADF8104020F0E0F80028DFD050
:10B6000018B0BDE8F0870020FAE700BF2BB80400AF
:10B610007FB50123694602200193FEF703FF04462C
:10B6200060BB02AA01A9022020F02CF8044610B148
:10B6300010F10C0F22D10399B1F5803F23D2009A6B
:10B64000002394681846084484421AD30133082B17
:10B65000F9D10E4DA982EB825368AB602846D368BE
:10B66000EB6320F07AF9044640B9094E6E60284633
:10B67000FFF7FAFD28466E60FFF704FE204604B08F
:10B6800070BD9BB2E5E76FF02004F7E7281E0020AD
:10B690003004002030BFFFF7FDBF00BF2DE9F041AF
:10B6A0000B4EDFF8348006EB0807CC1B054632460C
:10B6B0000849204626F029FAA01942460021083CF4
:10B6C00026F04BFA6C6707F10800BDE8F08100BF77
:10B6D00000000000C828050008000000054B9A691A
:10B6E0009B689A421FBF044A536843F080535360DB
:10B6F000704700BF404B002000ED00E070B5264BC6
:10B7000015469A6A12F0100F9A6A14BF1124102479
:10B7100012F0080F9A6A18BF1224920706460AD53B
:10B72000586B9A6A140634D519B19A6A22F08002CD
:10B730009A62132401E06FF01500174B9A6A12F019
:10B74000010F9A6A18BF142412F0200F9A6A18BFCA
:10B750001524D20602D49B6A9B070AD50E4B5B6860
:10B76000190506D5314600F07DFA10B180F309883D
:10B770000224094B9A6A920642BF5A6A22F4005286
:10B780005A629A6A42F0FF029A6200232B702046A6
:10B7900070BD6FF01500CCE700ED00E0134B9A6A26
:10B7A00012F0007F9A6A14BF1E201D2012F0807FC5
:10B7B0009A6A18BF1F2012F4002F9A6A18BF21201E
:10B7C00012F4802F9A6A18BF222012F4003F9A6A5E
:10B7D00018BF232012F4803F9A6A6FEA02426FEA90
:10B7E00012429A6218BF2420704700BF00ED00E0AB
:10B7F00010B5194B0246986A9C6A10F4805F14BF1A
:10B800001720162014F4006F9C6A18BF1820A40596
:10B8100009D5986B986A000404D51AB19A6A22F483
:10B8200000429A6219200C4B9A6A12F4806F9A6A4D
:10B8300018BF1A20D2050CD49B6A13F4005F18BFFE
:10B840001C20054A936A43F47F43936200230B70E4
:10B8500010BD1B20F5E700BF00ED00E070B5454BC3
:10B860005B689CB00546C3F30803002686F3118885
:10B87000BFF36F8F02F07F40B0F17F4F11D102F024
:10B880000C0008280DD010074CBF0D4601260022E1
:10B89000033B8DF80720032B05D8DFE803F01E5D7E
:10B8A000615A3546F3E700249DF807309BB96822BA
:10B8B000294602A826F029F9099B002E54D0C3F38B
:10B8C000080222B96FEA53236FEA4323099302A9BE
:10B8D000204620F077F81CB070BD264BDA6A91073D
:10B8E000E1D4DA6A002ADEDBDA6A5200DBD55A6973
:10B8F000A96942F480725A61BFF34F8FBFF36F8F13
:10B900005A6931F8021C22F480725A61BFF34F8FDA
:10B91000BFF36F8F4DF6027291420AD09A6AD2B28B
:10B920004AB10DF1070201212846FFF7E7FE044660
:10B93000BAE72C68B8E79A6A12F47F4F05D00DF188
:10B9400007010120FFF754FFF1E79B6AB3F5803F41
:10B95000A9D3FFF723FFEAE70DF107020021E3E790
:10B960000DF107010020EDE723F4FF7323F001033D
:10B97000ACE700BF00ED00E0044B5A6942F0100252
:10B980005A615A6922F008025A61704700ED00E0DE
:10B99000EFF30880EFF3098101B57246FFF75EFF10
:10B9A00001BD00BF18F076FC202080F31188084804
:10B9B0004FF40861401880F30988EFF314800221E6
:10B9C000084380F31488BFF36F8F00F0D3F80000B2
:10B9D000806E0020BFF34F8F0549064BCA6802F402
:10B9E000E0621343CB60BFF34F8F00BFFDE700BFA2
:10B9F00000ED00E00400FA05084B9B6883420BD180
:10BA0000EFF3058343B1064B5A6842F080525A6007
:10BA10005A6A22F400425A621DF00CB8404B0020D2
:10BA200000ED00E023498A6882F8C1E04FF0300061
:10BA30001044EFF3098C80E8F01F1EF0100F03D1C3
:10BA400002F1800080EC108A202080F31288BFF37E
:10BA50006F8F194F4FF000668A698A603E60506FA1
:10BA6000164C206092F9C1E0906F0023936780F339
:10BA700011881EF0100F03D00023E1EE103A03E00E
:10BA800002F1800090EC108AEFF3148323F004039A
:10BA900083F31488BFF36F8F04B5104600F078F974
:10BAA000BDE8044002F1300090E8F01F8CF30988F3
:10BAB00070470000404B002004ED00E0681E0020AD
:10BAC0001EF0040F0CBFEFF30880EFF309808169CB
:10BAD00011F8021C0229FFD001B572461FF078FF51
:10BAE00001BD00BF40B2002807DB044A4109012321
:10BAF00000F01F00834042F82130704700E100E071
:10BB000040B200280CDB4309064900F01F00203337
:10BB10000122824041F82320BFF34F8FBFF36F8F84
:10BB2000704700BF00E100E0054B420900F01F0034
:10BB300053F82220012303FA00F01040704700BFA1
:10BB400000E100E040B20028A8BF00F1604001F130
:10BB50000101B8BF064B4FEA4111ACBF00F561408F
:10BB600000F00F00C9B2B4BF195480F80013704739
:10BB700014ED00E0144A08B5144B22F07F029A60DD
:10BB8000BFF34F8FBFF36F8FD3F8882022F470027A
:10BB9000C3F88820D3F8882042F4A002C3F8882094
:10BBA0004FF04042C3F83422BFF34F8FBFF36F8F83
:10BBB0000023E1EE103A1BF083FE1DF073F800F055
:10BBC000BDF81BF0BFFE00BF0070020000ED00E0FA
:10BBD00042F8203C009B42F81C3C019B42F8183C78
:10BBE0000A49029B42F8143C4FF0807342F8043C2F
:10BBF00021F00101002342F8081C203A83674FF42A
:10BC00007D430265C0F8C030704700BF219E02002E
:10BC1000037B13F0020F124B03D190F8C120D20620
:10BC200011D45A6B42F080425A63D0F8C0301907E1
:10BC30005CBF43F00803C0F8C030037B43F002034D
:10BC40000373802070475A6B22F080425A63D0F809
:10BC5000C0301A0744BF23F00803C0F8C030F0E733
:10BC600000EF00E0094A0346906870B113F1160F27
:10BC7000406E05D0A0F180029A4205D8834203D2DB
:10BC8000814228BF0020704700207047404B0020B1
:10BC9000104B9B6883421AD1EFF30580B8B9EFF3DC
:10BCA0001181202282F31288BFF36F8F1A7B22F05A
:10BCB00002021A73EFF3148323F0040383F314884E
:10BCC000BFF36F8F81F31188BFF36F8F70476FF0F1
:10BCD00015007047404B002008B515460E4600225F
:10BCE000E1EE102AEFF3148222F0040282F31488AA
:10BCF000BFF36F8FBFF36F8F094A0A4B9060426F9B
:10BD00001A6000F045F82C4686F309880020064B9F
:10BD100098472046002100220023044C204700BF02
:10BD2000404B0020681E0020EFB90400219E020055
:10BD3000014B10221A61704700ED00E00448002317
:10BD40002021C2180133302B82F80013F9D170473B
:10BD500000E100E008B5EFF30583064A103B02EB73
:10BD6000C30152F8330049688847BDE80840FFF72F
:10BD7000B5BC00BF90250500024B034A03480121D2
:10BD800000F07CB80000042000000020A02F050077
:10BD900010B50446FFF73CFF626E03460548D21A11
:10BDA000C0E90023044B8360BDE81040012100F08E
:10BDB0006FB800BF6C1E002000000B15084AC2F8C7
:10BDC00098000B6823F01F03034343F01003C2F8ED
:10BDD0009C308B6843F00103C2F8A030704700BF6D
:10BDE00000ED00E02DE9F043DFF8608085B00E46FD
:10BDF0001F4604464FF00009B14523DA6068D8B108
:10BE00003FB1411E08421BD17F2819D9236819422E
:10BE100016D1236801931FF00DFEA368034303931B
:10BE2000D8F89050C5F30725D0B2013DA84207D8F5
:10BE300001A9FFF7C3FF421C09F101090C34DBE73C
:10BE40006FF01502104605B0BDE8F08300ED00E08C
:10BE5000044B0522C3F89420BFF34F8FBFF36F8FBD
:10BE6000704700BF00ED00E0BFF35F8F024B002280
:10BE7000C3F89420704700BF00ED00E010B5034CFC
:10BE800001232278FFF7AEFF207010BD274C002061
:10BE900008B50B4A00231278FFF7A4FF10F1160F24
:10BEA00007D0084A0021D2F89030C3F30723984204
:10BEB00000DB08BDC2F89800C2F8A0100130F2E71C
:10BEC000274C002000ED00E02DE9F043534B544C8B
:10BED000D3F890302568C3F307239D4285B000F264
:10BEE0009A80FFF7C1FF00200C2685421AD14D4CE5
:10BEF0004D4F25706846FEF78FFADFF82081DFF896
:10BF00002C9106460025AE4213D1237843490020E8
:10BF1000D1F89020C2F30722934276DBFFF798FF17
:10BF2000002042E0616806FB0011FFF747FF013087
:10BF3000DBE7009800EB05114FEA051CCB683B409E
:10BF4000B3F5000F48D00AD8B3F5001F30D0B3F5D1
:10BF5000800F36D0B3F5801F10D00135D3E7B3F191
:10BF6000807F42D0B3F1007FF7D150F80C30886861
:10BF70004A681FF05FFD40F4802009E050F80C3063
:10BF800088684A681FF056FD40F0885040F4302021
:10BF9000CDE901230390D8F890302078C3F307232C
:10BFA000013B98422AD96FF0150005B0BDE8F08337
:10BFB00050F80C3088684A681FF03CFD40EA0900E0
:10BFC000E6E750F80C3088684A681FF033FD40F00F
:10BFD000007040F40030DBE750F80C3088684A68A5
:10BFE0001FF028FD40F08270D2E750F80C308868CE
:10BFF0004A681FF01FFD40F08870C9E701A9FFF7EC
:10C00000DDFE237801332370A7E7C1F89830C1F82B
:10C01000A00001337CE74FF0FF30C6E700ED00E001
:10C02000AC2F0500274C00200000F0FF0000081195
:10C0300008B50649064821F00701C1F1005202F592
:10C0400080221EF088FD002008BD00BFFF95002063
:10C05000781E002003484FF0FF324FF0FF331BF0F3
:10C06000EBBD00BF4404002001481BF05DBE00BFD3
:10C070004404002038B50546FFF7ECFF08482A467F
:10C0800008211EF000FD044628B925B126F000F96C
:10C09000044B0C221A50FFF7E7FF204638BD00BFC3
:10C0A000781E00200C00000010B50446FFF7D2FFF8
:10C0B000214603481EF0AFFCBDE81040FFF7D4BF97
:10C0C000781E002070B5A0FB01543CB92846FFF74C
:10C0D000D1FF064640B90026304670BD26F0D8F89C
:10C0E000044B0C221A50F6E72A46214625F035FD6E
:10C0F000F2E700BF0C00000070B54169867A0B4D75
:10C10000044659B1437ADB0706D42C2303FB0653BC
:10C110005B6A1B689B689847002363612C2021465B
:10C1200006FB0050BDE8704025F0BAB9C80A0020EF
:10C13000024B2C2202FB0030704700BFC80A0020CF
:10C14000827A064B2C2101FB02339A6A1B7F1B3338
:10C15000801A23F00303B0FBF3F07047C80A0020F5
:10C1600038B5074B827A2C2404FB02335B6AD3E98F
:10C1700001240C601568FFF7E3FF04FB005038BD95
:10C18000C80A00202DE9F04385B0054668460391B2
:10C1900090461C4625F0EFFBDDE90067EFF31189BF
:10C1A000202383F31288BFF36F8F6B8B002B41D05A
:10C1B0002A8B9A4225D90022002328461BF004FE30
:10C1C0000446F0B189F31188BFF36F8F039B002BF6
:10C1D00041D032463B46684625F0F1FBA27A264B19
:10C1E0002C2101FB023320465B6A1B6803A91D68F2
:10C1F000DDE90023A847606170BB2046FFF77CFFA4
:10C2000024E0698B4B1E6B8389F31188BFF36F8F1A
:10C210002B7F2A8BAC6A1B3323F00303521A02FBD9
:10C220000344154B154AEB1A9B105343A3722B7F03
:10C23000E372CBE789F31188BFF36F8F2346424641
:10C2400028461BF0C1FD04460028BFD1002420462B
:10C2500005B0BDE8F0836361012300252381039BC2
:10C260006382E27A6560294604F1180025F075FCC6
:10C2700063692582E360EAE7C80A0020A38B2EBA2F
:10C2800070B50C4C2C2500B970BD037A4668013B93
:10C29000DBB20372002BF7D1C3604360837A05FBE6
:10C2A00003431B6A13B198473046ECE7FFF724FFBE
:10C2B000FAE700BFC80A00200E4A0123C2F8403541
:10C2C0004FF080424FF08051C2F87835D1F83001FC
:10C2D000082808D1D1F83411052904D80648415C52
:10C2E00009B1C2F838364FF080430122C3F88025E7
:10C2F0000020704700E001408858050020B1034B42
:10C30000800143F001031847704700BF7029050002
:10C3100008B5044824F0DFFE00280CBF6FF01200BF
:10C32000002008BD3C24050010B50346054882687E
:10C3300014688AB21946A0470028B4BF6FF0040001
:10C34000002010BD3C2405002DE9F341254CBFF32E
:10C350005B8F1F462368BFF35B8F1646DA070546DF
:10C360002BD520B96FF0010002B0BDE8F08101A922
:10C370001FF012FA1C4980460246284625F083FD2C
:10C38000E8B9BFF35B8F2368BFF35B8FC3F3C008CB
:10C390001B0712D4A4F1D405072229463846B0471A
:10C3A000062895BF44F8D48C0723C5F80380B0FB5A
:10C3B000F3F094BF85F80780E8710020D4E72846A1
:10C3C0000A49424625F05FFD05460028CAD11022E1
:10C3D00004F19C013846B0470028EEDB044484F8A1
:10C3E0009C50EAE7D4000020B9570500A858050082
:10C3F0002DE9F04188B09C79DDF838805D791E79AF
:10C40000DF7893F802C093F801E01B78B8F1000FD1
:10C410000ED0CDE90638CDE904CE1346CDE902674A
:10C42000CDE90045084A1CF065FE08B0BDE8F08182
:10C43000CDE905E3CDE9037C1346CDE90156034A76
:10C4400000941CF057FEF0E7AD580500D1580500E8
:10C4500070B504468CB01E461546A2B129B10A46F5
:10C4600002A804211EF0D0FB02A900912B4622460F
:10C47000242103A8FFF7BCFF109A314603A8FEF75A
:10C48000CDFE0CB070BD0346044A242103A81CF065
:10C4900031FE0028F0DA6FF01500F2E7F2580500DF
:10C4A00007B5064B0648DA79C2EBC20200920022B9
:10C4B0001146FFF7CDFF03B05DF804FB000000203C
:10C4C000B957050030B504468DB0154692B129B173
:10C4D0000A4602A804211EF097FB02A900912B46F0
:10C4E0002246242103A8FFF783FF03A81FF029F9A0
:10C4F0000DB030BD0346054A242103A81CF0FAFD07
:10C500000028F2DA6FF01500F2E700BFF2580500DC
:10C5100007B5009313460A4601460348FFF798FF04
:10C5200003B05DF804FB00BFEB5A05000A46014664
:10C530000148FFF7C7BF00BFEB5A050007B50093DE
:10C5400013460A4601460348FFF782FF03B05DF831
:10C5500004FB00BFE55A050007B5009313460A46E1
:10C5600001460348FFF774FF03B05DF804FB00BF0A
:10C57000D65A050007B5002203460091034811462C
:10C58000FFF766FF03B05DF804FB00BFDD5A05004E
:10C5900007B500220346009103481146FFF758FFF4
:10C5A00003B05DF804FB00BFA858050008B50248B9
:10C5B0001BF050FE002008BD5804002070B51D4C33
:10C5C000BFF35B8F2368BFF35B8F13F0010F25462A
:10C5D00022D094F89C30A4F1D40613B9164800F088
:10C5E00021FBF379D3B1BFF35B8F2368BFF35B8F7C
:10C5F0005A0701D400F010FBBFF35B8F55E8003FF2
:10C6000023F4006245E800210029F7D1BFF35B8FD6
:10C610001B0501D5FFF7CAFF002009E001F096F8DD
:10C6200030B9F379002BDED101F0A0F80028DAD080
:10C6300070BD00BFD40000206158050007B500930D
:10C6400013460A4601460348FFF702FF03B05DF8B0
:10C6500004FB00BF2A5B05000A4601460148FFF7BC
:10C6600031BF00BF2A5B050030B50A4D0A4B85B0CB
:10C67000002428460293039424F0EAFF02AB0093BF
:10C68000284606490A234FF4B0621BF0E9FD204614
:10C6900005B030BD400E0020FB58050000540020BE
:10C6A000014601481BF01ABE400E00200146014819
:10C6B00024F0A3BF400E00200378012B30B513D027
:10C6C000022B27D07BB9194B0A4603F1100453F80B
:10C6D000045B42F8045BA342F9D11B7813704388D2
:10C6E0004B731B0A8B7330BD104B0A4603F11004C9
:10C6F00053F8045B42F8045BA342F9D11B78137032
:10C7000043684B73C3F307221B0CCB731B0A8A735A
:10C710000B74E8E700F1100350F8042B41F8042BE8
:10C720009842F9D103780B70DDE700BF045905008A
:10C7300008B51FF01FFB1CF061F8044B1B680BB120
:10C740000A209847BDE808401CF06CB8841E002001
:10C7500038B5054605481FF083F9044620B101218C
:10C760000C301FF0DEF92576204638BDA40B0020E2
:10C770000F2810B50ED80D280ED90B481FF070F9F0
:10C78000044628B101210C301FF0CBF90223237697
:10C79000204610BD1328F0D009B10448EEE7BDE8EB
:10C7A00010400220FFF7D4BFD00B0020200B002048
:10C7B00070B5C6683378B6F8014083B90F212046BA
:10C7C00001F0C2FFF378054650B90A4A118831B921
:10C7D0006FEA04506FEA10501080074A137070BD62
:10C7E0000373012101F02CFF2846BDE8704001F0E1
:10C7F000FDBE00BF804B0020284C002010B5084C27
:10C800000146062294F86F0002F04EFA38B994F807
:10C810006F000449BDE81040052202F045BA10BD82
:10C82000000000208E58050010B5012104460C3090
:10C830001FF0A9F92146034A0078BDE81040002303
:10C840001FF0AABBA030050010B5012104460C3032
:10C850001FF099F92146034A0078BDE810400823EB
:10C860001FF09ABB6030050070B52F481FF011F91A
:10C870000446002857D0017E022932D0082902D16F
:10C88000038A032B02D8FFF7FBFC20E004210C30C5
:10C890001FF079F9FF22438806886276228AC6F360
:10C8A0000B009A42A08301D02046ECE70F2101F053
:10C8B0004BFF05460028F7D001F07AFF320B607677
:10C8C0002146284620F00FF9284601F08FFE174B2D
:10C8D000D3F84C313BB3BDE870401549154824F0FE
:10C8E0008CBE038A012BCED90C301FF04CF90546C3
:10C8F00000781FF0B4FA10F002060DD10E4A0F496D
:10C900000F4840F6D3331EF072F986F31188BFF357
:10C910006F8F0323184602DF0A4A28780623214630
:10C920001FF03AFBC0E770BD4C0100200000002062
:10C9300078040020280F00201559050049590500EA
:10C9400077590500303005002DE9F0478846164636
:10C950008246002879D0BFF35B8FDFF8F890002380
:10C9600059E8004F49E80032002AF9D1BFF35B8F44
:10C97000002C6AD02046FFF7E3FB354D0C2303FB68
:10C98000005027464388534511D0BFF35B8F59E8C9
:10C99000003F49E80072002AF9D1BFF35B8F002BFA
:10C9A00053D01F463846BDE8F047FFF769BCA642A2
:10C9B0000FD020461FF04FF804F10C09022301218B
:10C9C000484623761FF0ADF8328AF16848461FF0DA
:10C9D000B9F82046FFF7B4FB0C2606FB005043686D
:10C9E000ABB1B8F1000F12D12046FFF7A9FB06FB4F
:10C9F000005001214268D2E90003127A03F01F06B9
:10CA0000B1405B09DAB100EB83001FF03AFA20462F
:10CA1000FFF796FB0C2606FB00508368002BC1D065
:10CA20002046FFF78DFB704305F800802046FFF796
:10CA300087FB06FB0055A8681BF0F8F9B2E7C9436D
:10CA400000EB83001FF0BFFAE1E7BDE8F08700BF0D
:10CA5000881E00204801002010B5C1E900239DF880
:10CA600008300B720C46FFF76BFB034B0C2202FBEA
:10CA700000335C6010BD00BF881E00202DE9F04728
:10CA80004FF0FF3206464FF0FF33184888461EF03D
:10CA9000E7FF044638B300F10C07012138461FF0C8
:10CAA00040F8012323762046FFF74AFB104D4FF054
:10CAB0000C0909FB00504FF0000A46802046FFF7A2
:10CAC0003FFB09FB0050C0F808A02046FFF738FBE9
:10CAD00009FB005503213846C5F804A01FF02CF8C7
